:020000040800F2
:10000000002800204D01000891010008910100081E
:100010009101000891010008910100080000000012
:100020000000000000000000000000009101000836
:1000300091010008000000009101000891010008F2
:100040009101000891010008910100089101000848
:100050009101000891010008910100089101000838
:100060009101000891010008910100089101000828
:100070009101000891010008910100089101000818
:100080009101000891010008910100089101000808
:1000900091010008910100089101000891010008F8
:1000A00091010008910100089101000891010008E8
:1000B000910100089502000800000000910100086D
:1000C00091010008000000000000000091010008FC
:1000D00000000000ED02000891010008000000008F
:1000E0009101000891010008910100080000000042
:1000F0000000000000000000000000000000000000
:0C01000000000000000000005FF808F1A3
:10010C0010B5054C237833B9044B13B10448AFF345
:10011C0000800123237010BD30000020000000007F
:10012C00CC04000808B5034B1BB103490348AFF3DB
:10013C00008008BD0000000034000020CC04000842
:10014C00002103E00A4B5B584350043109480A4B29
:10015C0042189A42F6D3094A02E0002342F8043BC3
:10016C00074B9A42F9D300F00FF800F0DFF8704714
:10017C00FC040008000000203000002030000020AB
:10018C0084010020FEE7000010B400204FF41F048F
:10019C00394A3A4B116883B041F001011160516842
:1001AC000B405360136823F0847323F48033136083
:1001BC00136823F480231360536823F4FE03536005
:1001CC00946000900190136843F48033136003E053
:1001DC00009BB3F5A06F09D0136803F400330193AF
:1001EC00009B01330093019B002BF1D0224B1B6829
:1001FC0013F4003318BF01230193019B012B06D08C
:10020C004FF000621E4B9A6003B010BC70471D4A41
:10021C00194B116841F010011160116821F00701B0
:10022C001160116841F0020111605A685A605A68F5
:10023C005A605A6842F480625A605A6822F47C12FE
:10024C005A605A6842F4E8125A601A6842F0807296
:10025C001A601A689201FCD55968074A21F003010B
:10026C005960596841F002015960536803F00C035E
:10027C00082BFAD1C4E700BF001002400000FFF8C1
:10028C0000ED00E000200240012300224FF0550C4D
:10029C0030B40F480F4D017904688B400E4923612F
:1002AC000A820E4A136801331360A5F804C08B8DC3
:1002BC009AB2C3F38D03D21A8B8C9BB29342FBDBA5
:1002CC000123027910329340236130BC704700BF88
:1002DC000000002000380140000400404C000020C9
:1002EC00012370B40D4A0E4D117B94680D4E01F133
:1002FC00100203FA01F1216103FA02F23388296832
:10030C000948C3F3401301312960226150F82320BE
:10031C00013240F8232070BC704700BF0000002061
:10032C0050000020003801405C00002080B54FF0E8
:10033C00010C00270F25554ADFF854E1936943F06F
:10034C003C0393610EEBC70300225EF837005E6836
:10035C000FE050F808804979D8F8003001F00F010F
:10036C0023EA0903A14001320B43B242C8F8003022
:10037C0027DA00EBC2018C790B794FEAC20804B979
:10038C00103350F808400CFA03F323610B799C00EE
:10039C00072B05FA04F9DCD950F8084003F00703E1
:1003AC0091F805809B00616805FA03F908F00F08C5
:1003BC0021EA090108FA03F301320B43B2426360EC
:1003CC00D7DB0FB90127BDE700234FF48070402124
:1003DC004FF0A10E42F22C0548242E4E2E4ADFF887
:1003EC00BCC0C2F83873C2F88072B365C6F864C07A
:1003FC00DFF8ACC02B4BC6F860C0DFF8ACC0CCF853
:10040C000000F065C6F858E09D811C819982274B4D
:10041C0083F8251320215960C2F884734FF00052E1
:10042C001A604FF0300841F61F413D46204A2148E2
:10043C00214CDFF888E083F81D8391859781178024
:10044C00F16DDCF8003099421ED0027D036905FA8B
:10045C0002F21A61DCF80030DEF800805B1ADBB2C5
:10046C00072B1F4628BF0727027D4344CEF80030D8
:10047C001032036905FA02F2CCF800101A6154F834
:10048C002730013344F8273020BFD9E70010024051
:10049C00E4040008000002400000424284000020F6
:1004AC0004380140003801405400002000E100E015
:1004BC0000040040000000206400002058000020D0
:1004CC00F8B500BFF8BC08BC9E467047F8B500BF35
:0804DC00F8BC08BC9E46704705
:1004E40020000020020000000000002004000000A2
:0404F40031010008CA
:0404F8000D010008EA
:1004FC00000C014007010100000C01400601010045
:10050C00000C014005010100000C01400401010038
:10051C000008014009090100000801400A0401001B
:040000050800014DA1
:00000001FF
